:100000000C94B8290C9412650C94E7640C94BC64AD
:100010000C9491640C9466640C943B640C9410648E
:100020000C94E5630C94E9290C94E9290C94E929D2
:100030000C94E9290C94E9290C94E9290C94E929F8
:100040000C94E9290C94AF9E0C94E9290C94E929AD
:100050000C94E9290C94E9290C94EEB60C949B635A
:100060000C94E9290C9488440C94E9290C94E9290E
:100070000C94E9290C94E9290C94E9290C94E929B8
:100080000C94E9290C94E9290C94E9290C94E929A8
:100090000C94E9290C94E9290C94E9290C94E92998
:1000A0000C94E9290C94E9290C94E9290C94E92988
:1000B0000C94E9290C94E9290C94E9290C94E92978
:1000C0000C94E9290C94E9290C94E9290C94E92968
:1000D0000C94E9290C94E9290C94E9290C94E92958
:1000E0000C94E92930613361226126612C616A61D7
:1000F00037613B614161456149614F6153615761BE
:100100006A615D6161616561B762BC62C162CB6257
:10011000D5624E63DF62E762EF62F96203630D63EB
:100120001C6326634E6330633A6344634EB75EB725
:100130007DB78DB7A8B7ADB7B0B7B5B7B8B7BDB7CE
:10014000C0B7C5B7CFB7084AD73B3BCE016E84BC1A
:10015000BFFDC12F3D6C74319ABD56833DDA3D0021
:10016000C77F11BED9E4BB4C3E916BAAAABE00006A
:1001700000803F05A84CCDB2D44EB93836A9020C48
:1001800050B9918688083CA6AAAA2ABE0000008021
:100190003F004E414E494E495459494E46CDCCCC74
:1001A0003D0AD7233C17B7D13877CC2B329595E64B
:1001B000241FB14F0A000020410000C84200401C2B
:1001C0004620BCBE4CCA1B0E5AAEC59D7400407A78
:1001D00010F35A00A0724E18090010A5D4E80000D0
:1001E000E87648170000E40B54020000CA9A3B006E
:1001F0000000E1F505000080969800000040420FE5
:10020000000000A08601000000102700000000E8A8
:1002100003000000006400000000000A000000006D
:10022000000100000000002C76D888DC674F08230E
:10023000DFC1DFAE59E1B1B796E5E3E453C63AE674
:1002400051997696E8E6C28426EB898C9B62ED4054
:100250007C6FFCEFBC9C9F40F2BAA56FA5F49005A3
:100260005A2AF75C936B6CF9676DC11BFCE0E40DD7
:1002700047FEF520E6B500D0ED902E0300943577CB
:10028000050080841E080000204E0A000000C80CF3
:10029000333333330F986E12831141EF8D2114895C
:1002A0003BE65516CFFEE6DB18D1844B381BF77CB6
:1002B0001D901DA4BBE424203284725E228100C9FB
:1002C000F124ECA1E53D2720746F6F206C6F6E6701
:1002D00020657874727573696F6E207072657665CB
:1002E0006E7465640020636F6C6420657874727549
:1002F00073696F6E2070726576656E746564005305
:100300006C6565702E2E2E005A206E6F7420656EFF
:1003100074657265642E0A0059206F7574206F66CB
:100320002072616E67652028312D33292E0A00590D
:10033000206E6F7420656E74657265642E0A0058B5
:10034000206F7574206F662072616E67652028319A
:100350002D33292E0A0058206E6F7420656E746547
:100360007265642E0A00473238004D65736820704C
:10037000726F62696E6720646F6E652E00537461E0
:100380007274206D6573682070726F62696E672089
:1003900077697468202247323920533122206669F8
:1003A0007273742E004732380A47323920533200B4
:1003B0002020000A4D6561737572656420706F6955
:1003C0006E74733A000A5A2073656172636820681C
:1003D00065696768743A20004E756D20582C593A4B
:1003E00020004D65736820626564206C6576656CDD
:1003F000696E67206E6F74206163746976652E0084
:1004000053206F7574206F662072616E67652028B7
:10041000302D33292E00526573756D696E6720701B
:1004200072696E74007777772E6378737733642EF2
:10043000636F6D005761697420666F722075736514
:10044000722E2E2E004E6F206D6F76652E00456E3B
:10045000642066696C65206C697374004265676925
:100460006E2066696C65206C69737400534420705B
:1004700072696E74696E67206279746520004E6FD0
:1004800074205344207072696E74696E670044452D
:100490004255472044525952554E20454E41424CF8
:1004A0004544004445425547204543484F20454E6A
:1004B00041424C4544004B494C4C45442E2000776A
:1004C00077772E6378737733642E636F6D00777759
:1004D000772E6378737733642E636F6D204F666673
:1004E0002E004649524D574152455F4E414D453AC7
:1004F0004D61726C696E20312E312E302046726F44
:100500006D204172636869766520534F55524345AB
:100510005F434F44455F55524C3A687474703A2FAC
:100520002F202E2E2E2050524F544F434F4C5F56AB
:10053000455253494F4E3A312E30204D41434849A0
:100540004E455F545950453A7777772E63787377E5
:1005500033642E636F6D2045585452554445525FA5
:10056000434F554E543A3120555549443A30303076
:1005700030303030302D303030302D303030302D84
:10058000303030302D30303030303030303030306E
:10059000300A00205A3A0020593A0020436F756E05
:1005A0007420583A200020453A00205A3A00205939
:1005B0003A00583A007A5F6D696E3A2000795F6DB3
:1005C000696E3A2000785F6D696E3A20004D3134D3
:1005D0003520533C696E6465783E206F7574206FDA
:1005E000662072616E67652028302D3129005365C1
:1005F0007474696E672054726176656C2041636320
:10060000656C65726174696F6E3A2000536574742D
:10061000696E67205265747261637420416363651B
:100620006C65726174696F6E3A2000536574746909
:100630006E67205072696E7420416363656C6572E9
:100640006174696F6E3A200053657474696E672037
:100650005072696E7420616E642054726176656CAC
:1006600020416363656C65726174696F6E3A200046
:100670004D65736820585920696E646578206973E8
:10068000206F7574206F6620626F756E6473004D05
:100690003432312072657175697265732058595A08
:1006A00020706172616D6574657273004D33303016
:1006B000205336353920503230300A4D3330302017
:1006C000533639382050323030004F6666736574C7
:1006D000206170706C6965642E004D33303020539A
:1006E00034302050323030004572723A20546F6FEF
:1006F000206661722100546F6F20666172206672FD
:100700006F6D207265666572656E636520706F69D6
:100710006E7400206279746573290053657474697E
:100720006E67732053746F726564202800220A007C
:10073000556E6B6E6F776E20636F6D6D616E643A90
:100740002022004B494C4C45442E2000202D2049AE
:100750006E76616C69642065787472756465722068
:100760006E756D62657220210062696E004D3131D7
:100770003720494E56414C494420444154412E00B3
:100780004D313137205072696E74696E672E2E2E8E
:10079000004730205A2573004732382058302059FE
:1007A00030004730205A257300473932205A2573CC
:1007B000204525730062696E002020506C616E6ECA
:1007C000657242756666657242797465733A200097
:1007D0002046726565204D656D6F72793A20004143
:1007E0007072203131203230313800436F6D7069C2
:1007F0006C65643A20002843522D3130536C616E91
:1008000067756167652900207C20417574686F7287
:100810003A2000323031352D31322D303120313215
:100820003A303000204C61737420557064617465F7
:10083000643A200020004D61726C696E0020536F95
:100840006674776172652052657365740020576124
:10085000746368646F672052657365740020427228
:100860006F776E206F757420526573657400204534
:10087000787465726E616C20526573657400506F98
:100880007765725570007374617274006572726F6F
:10089000722077726974696E6720746F2066696C64
:1008A0006500656E6473746F7073206869743A20B4
:1008B0005A00205A3A00656E6473746F7073206832
:1008C00069743A20590020593A00656E6473746F58
:1008D0007073206869743A20580020583A00656E99
:1008E0006473746F7073206869743A20006F6B00D2
:1008F000446F6E6520736176696E672066696C650A
:100900002E004D3239002200656E7175657565697E
:100910006E672022002E0A0046696C652862696EA7
:10092000292064656C657465640044656C65746950
:100930006F6E2862696E29206661696C6564004685
:10094000696C652064656C657465643A0044656C27
:100950006574696F6E206661696C65642C204669F8
:100960006C653A20006F70656E206661696C656425
:100970002C2046696C653A20002569206D696E2C33
:1009800020256920736563002042403A0020403AE8
:1009900000205400202F00202F0020423A00202F5A
:1009A0000020543A006F6B0048656174696E6720DF
:1009B000646F6E652E003F0020573A0020453A00D4
:1009C000543A0048656174696E672E2E2E004265A8
:1009D0006420646F6E652E0020423A0020453A0084
:1009E000543A004265642048656174696E672E0060
:1009F00053442063617264206F6B006F70656E52A8
:100A00006F6F74206661696C656400766F6C756DDC
:100A1000652E696E6974206661696C656400534473
:100A200020696E6974206661696C004D3234004D36
:100A30003233202573006175746F25692E67005766
:100A4000726974696E6720746F2066696C653A20FC
:100A5000002E0A006F70656E206661696C65642CFB
:100A60002046696C653A20002E0A0046696C6520B4
:100A700073656C6563746564002053697A653A2018
:100A80000046696C65206F70656E65643A20006F82
:100A900070656E206661696C65642C2046696C65C2
:100AA0003A20006F70656E206661696C65642C2069
:100AB00046696C653A20004E6F77206672657368F0
:100AC0002066696C653A20004E6F7720646F696E0E
:100AD000672066696C653A20002220706F730022DF
:100AE00020706172656E743A2200535542524F5520
:100AF00054494E452043414C4C20746172676574E3
:100B00003A22004B494C4C45442E200074727969BE
:100B10006E6720746F2063616C6C207375622D6743
:100B2000636F64652066696C6573207769746820FB
:100B3000746F6F206D616E79206C6576656C732EB5
:100B4000204D4158206C6576656C2069733A0045EC
:100B500072726F723A004572726F722077726974A6
:100B6000696E6720746F20454550524F4D2100201B
:100B7000627974657329002073746F7265642073E1
:100B8000657474696E6773207265747269657665E1
:100B90006420280048617264636F64656420446562
:100BA0006661756C742053657474696E6773204C4C
:100BB0006F616465640020204D3230302044300085
:100BC00020204D3230302044002044697361626C33
:100BD00065640046696C616D656E7420736574743C
:100BE000696E67733A00204C0020430020440020C7
:100BF000490020204D3330312050005049442073AB
:100C0000657474696E67733A0020460020420020C4
:100C1000204D313435204D312048002046002042FF
:100C20000020204D313435204D302048004D617476
:100C3000657269616C20686561747570207061729D
:100C4000616D65746572733A00205A002059002066
:100C5000204D3432312058002059002058002020E7
:100C60004D3432302053004D657368206265642036
:100C70006C6576656C696E673A00205A00205900F1
:100C800020204D323036205800486F6D65206F6649
:100C90006673657420286D6D293A00204500205A3E
:100CA0000020580020420020540020204D323035D2
:100CB000205300416476616E6365642076617269D9
:100CC00061626C65733A20533D4D696E20666565BF
:100CD000647261746520286D6D2F73292C20543D3A
:100CE0004D696E2074726176656C2066656564720C
:100CF00061746520286D6D2F73292C20423D6D692C
:100D00006E696D756D207365676D656E74207469AD
:100D10006D6520286D73292C20583D6D6178696DB3
:100D2000756D205859206A65726B20286D6D2F7380
:100D3000292C20205A3D6D6178696D756D205A20EF
:100D40006A65726B20286D6D2F73292C2020453D1C
:100D50006D6178696D756D2045206A65726B20281C
:100D60006D6D2F73290020540020520020204D3239
:100D70003034205000416363656C65726174696F43
:100D80006E733A20503D7072696E74696E672C20E4
:100D9000523D7265747261637420616E6420543DCB
:100DA00074726176656C00204500205A002059005D
:100DB00020204D3230312058004D6178696D756DBD
:100DC00020416363656C65726174696F6E20286D84
:100DD0006D2F7332293A00204500205A0020590017
:100DE00020204D3230332058004D6178696D756D8B
:100DF0002066656564726174657320286D6D2F735C
:100E0000293A00204500205A0020590020204D3961
:100E10003220580053746570732070657220756EAF
:100E200069743A007C3C3E5E2B3D3F2F5B5D3B2C62
:100E30002A225C0000060900FE070191032020FF22
:100E4000FF08FF07FF000000060000010707060279
:100E50000080808080800080030202060105A0A03F
:100E60000507070600005050F850F85050050707D6
:100E70000600002078A07028F02005070706000073
:100E8000C0C810204098180507070600006090A011
:100E900040A89068020303060104C04080030707CE
:100EA00006010020408080804020030707060100E3
:100EB0008040202020408005050506000120A87004
:100EC000A8200505050600012020F82020020303C4
:100ED0000602FFC04080050101060003F80202027D
:100EE000060200C0C005050506000108102040806C
:100EF000050707060000708898A8C88870030707D0
:100F000006010040C040404040E0050707060000E1
:100F1000708808708080F8050707060000F8102028
:100F2000100808F005070706000010305090F81070
:100F300010050707060000F880F00808887005070C
:100F400007060000304080F088887005070706001B
:100F500000F80810202020200507070600007088F0
:100F600088708888700507070600007088887808F0
:100F70001060020505060200C0C000C0C0020606DF
:100F80000602FFC0C000C040800407070600001032
:100F9000204080402010050303060002F800F804FA
:100FA0000707060100804020102040800507070643
:100FB000000070880810200020050606060000705A
:100FC000880868A870050707060000708888F888F8
:100FD0008888050707060000F08888F08888F005F3
:100FE0000707060000708880808088700507070664
:100FF0000000E09088888890E0050707060000F868
:101000008080F08080F8050707060000F88080F0F7
:10101000808080050707060000708880B888887087
:10102000050707060000888888F888888801070770
:10103000060200808080808080800507070600000F
:10104000381010101090600507070600008890A067
:10105000C0A09088050707060000808080808080FF
:10106000F805070706000088D8A88888888805073B
:10107000070600008888C8A8988888050707060022
:101080000070888888888870050707060000F08847
:1010900088F080808005070706000070888888A88F
:1010A0009068050707060000F08888F0A090880582
:1010B0000707060000788080700808F0050707061B
:1010C0000000F820202020202005070706000088C7
:1010D00088888888887005070706000088888888BF
:1010E0008850200507070600008888888888A8504F
:1010F00005070706000088885020508888050707E4
:101100000600008888885020202005070706000078
:10111000F80810204080F8030707060100E08080EF
:10112000808080E00505050600018040201008034E
:101130000707060100E02020202020E00503030629
:101140000004205088050101060000F80202020692
:1011500002058040050505060000700878887805BE
:1011600007070600008080B0C88888F005050506DE
:101170000000708080887005070706000008086876
:10118000988888780505050600007088F880700545
:1011900007070600003048E04040404005060606CC
:1011A00000FF7088887808700507070600008080B7
:1011B000B0C8888888010707060200800080808008
:1011C00080800308080601FF200020202020A04086
:1011D000040707060000808090A0C0A090030707C6
:1011E000060100C04040404040E005050506000003
:1011F000D0A8A8A8A8050505060000B0C88888885A
:10120000050505060000708888887005060606003A
:10121000FFF08888F080800506060600FF78888841
:10122000780808050505060000B0C880808005051F
:101230000506000070807008F005070706000040F2
:1012400040E0404048300505050600008888889841
:1012500068050505060000888888502005050506F4
:1012600000008888A8A850050505060000885020C1
:1012700050880506060600FF8888887808700505EE
:1012800005060000F8102040F803070706010020BB
:101290004040804040200107070602008080808097
:1012A0008080800307070601008040402040408086
:1012B000050202060003689000000006000000001E
:1012C000000600000000000600000000000600000C
:1012D00000000006000000000006000000000006FC
:1012E00000000000000600000000000600000000F2
:1012F00000060000000000060000000000060000DC
:1013000000000006000000000006000000000006CB
:1013100000000000000600000000000600000000C1
:1013200000060000000000060000000000060000AB
:10133000000000060000000000060000000000069B
:101340000000000000060000000000060000000091
:10135000000600000000000600000000000600007B
:10136000000000060000000000060000000000066B
:101370000000000000060000000000060000050359
:1013800003060002F800F8050606060000F8082823
:10139000302040050707060000F8082830202040CC
:1013A000040505060000102060A0200507070600C0
:1013B0000008102060A0202005050506000020F888
:1013C00088083005070706000020F88888081020E4
:1013D000050404060000F82020F8050606060000B3
:1013E000F820202020F805050506000010F83050F0
:1013F0009005070706000010F81030509010050502
:101400000506000040F84850400507070600002880
:101410000040F848504005070706000020F820F873
:10142000202020050808060000280020F820F820C9
:1014300020040606060000407090101020050808E1
:1014400006000028004070901010200506060600D7
:101450000040789010102005080806000028004081
:101460007890101020050505060000F8080808F817
:101470000507070600002800F8080808F805070710
:101480000600FF50F850501020400509090600FFE3
:10149000280050F85050102040050606060000C0F5
:1014A00008C80810E00508080600002800C008C8A1
:1014B0000810E0050606060000F808102050880510
:1014C00008080600002800F80810205088050606C5
:1014D00006000040F848504078050808060000283B
:1014E0000040F84850407804040406000110D01071
:1014F000E0050707060000280008C80810E00507F7
:10150000070600FF207888281028400509090600F2
:10151000FF280020788828102840050606060000CD
:10152000F020F82040800508080600002800F02080
:10153000F8204080040505060001C010D010E00529
:101540000606060000C008C80810E00508080600E6
:10155000002800C008C80810E00506060600007054
:1015600000F820204005080806000028007000F858
:10157000202040030707060100808080C0A08080F3
:1015800004080806010050008080C0A08080050784
:10159000070600002020F8202040800506060600EF
:1015A000007000000000F8050606060000F808506C
:1015B0002050800507070600FF20F808102070A8BB
:1015C0000307070601002020202020408005050594
:1015D0000600001088888888050707060000280094
:1015E00010888888880508080600001818001088E8
:1015F0008888880507070600008080F8808080784A
:10160000050808060000288080F88080807805089A
:1016100008060000189880F8808080780506060685
:101620000000F808080810600508080600002800F7
:10163000F808080810600508080600001818F808DF
:101640000808106005050506000140A010080805FF
:101650000707060001280040A01008080507070634
:101660000001181840A01008080506060600002012
:10167000F82020A8A8050808060000280020F82067
:1016800020A8A8050808060000181820F82020A89F
:10169000A8050606060000F80808502010040606F3
:1016A000060100E000E000E010050606060000204C
:1016B000408090F8080506060600000808502050F3
:1016C000800506060600007820F820203805070768
:1016D0000600004040F8485040400507070600005B
:1016E00040F84850404040050505060000701010C5
:1016F00010F8050707060000701010101010F8040D
:101700000505060100F010F010F0050707060000BF
:10171000F80808F80808F80506060600007000F842
:10172000081020030606060100A0A0A0A020400586
:101730000606060000505050505890040606060158
:101740000080808090A0C0050606060000F888880A
:1017500088F888050505060000F888081060050669
:1017600006060000F8880808106005060606000056
:1017700010F85050F810050606060000F8085060F2
:1017800040F8050606060000F808F80810200506CF
:10179000060600008040080810E005080806000062
:1017A000280020F88808182005060606000040F8E2
:1017B0004848889004050506010080F0A020200517
:1017C00008080600002800F88808081060050808C6
:1017D000060000280010F85050F810050707060012
:1017E000002800F8102020F805080806000028004E
:1017F000F808F8081020020202060202C0C0050123
:1018000001060003F80505050600018040201008C8
:101810000506060600012880402010080507070677
:101820000000F8080808080808000C0B00FE070173
:1018300092032120FFFF0AFF07FF00000006000AB5
:10184000010707060200808080808000800302027A
:10185000060105A0A00507070600005050F850F843
:1018600050500507070600002078A07028F02005DA
:101870000707060000C0C810204098180507070693
:1018800000006090A040A89068020303060104C015
:10189000408003070706010020408080804020032D
:1018A000070706010080402020204080050505062E
:1018B000000120A870A8200505050600012020F8D9
:1018C00020200203030602FFC0408005010106003C
:1018D00003F8020202060200C0C005050506000169
:1018E0000810204080050707060000708898A8C8E7
:1018F000887003070706010040C040404040E005F3
:101900000707060000708808708080F80507070642
:101910000000F81020100808F00507070600001066
:10192000305090F81010050707060000F880F00806
:10193000088870050707060000708080F0888870AE
:10194000050707060000F8081020202020050707DB
:1019500006000070888870888870050707060000F8
:1019600070888878080870020505060200C0C0006B
:10197000C0C00206060602FFC0C000C040800407C7
:1019800007060000102040804020100503030600D9
:1019900002F800F8040707060000804020102040ED
:1019A0008005070706000070880810200020050742
:1019B0000706000070880868A8A8700507070600D9
:1019C00000708888F8888888050707060000F08876
:1019D00088F08888F00507070600007088808080FE
:1019E0008870050707060000F08888888888F00559
:1019F0000707060000F88080F08080F805070706DA
:101A00000000F88080F080808005070706000070E5
:101A10008880B8888870050707060000888888F8DD
:101A20008888880107070602008080808080808087
:101A30000507070600003810101010906005070712
:101A40000600008890A0C0A0908805070706000047
:101A5000808080808080F805070706000088D8A86D
:101A6000888888880507070600008888C8A898889D
:101A70008805070706000070888888888870050731
:101A800007060000F08888F08080800507070600C0
:101A90000070888888A89068050707060000F0880D
:101AA00088F0A090880507070600007880807008FD
:101AB00008F0050707060000F82020202020200558
:101AC0000707060000888888888888700507070649
:101AD000000088888888885020050707060000884D
:101AE00088888888A8500507070600008888502045
:101AF0005088880507070600008888885020202025
:101B0000050707060000F80810204080F8030707C3
:101B1000060000E08080808080E005050506000169
:101B20008040201008030707060000E02020202046
:101B300020E005030306000420508805010106008B
:101B400000F80202020602058040050505060000B5
:101B500070087888780507070600008080B0C8887C
:101B600088F005050506000070808088700507076D
:101B700006000008086898888878050505060000B2
:101B80007088F880700507070600003048E0404084
:101B900040400506060600FF708888780870050733
:101BA000070600008080B0C8888888010707060201
:101BB00000800080808080800308080601FF2000EC
:101BC00020202020A040040707060100808090A06C
:101BD000C0A090030707060100C04040404040E01D
:101BE000050505060000D0A8A8A8A805050506005B
:101BF00000B0C888888805050506000070888888B8
:101C0000700506060600FFF08888F080800506064D
:101C10000600FF788888780808050505060000B0EA
:101C2000C880808005050506000070807008F004FB
:101C300007070600004040E040404030050505062B
:101C4000000088888898680505050600008888884F
:101C500050200505050600008888A8A85005050540
:101C600006000088502050880506060600FF888878
:101C700088780870050505060000F8102040F80374
:101C8000070706010020404080404020010707066A
:101C9000020080808080808080030707060100802A
:101CA000404020404080050202060003689000008A
:101CB0000006000A0000000C000A0000000C000AE8
:101CC0000000000C000A0000000C000A0000000CDC
:101CD000000A0000000C000A0000000C000A0000CE
:101CE000000C000A0000000C000A0000000C000AB2
:101CF0000000000C000A0000000C000A0000000CAC
:101D0000000A0000000C000A0000000C000A00009D
:101D1000000C000A0000000C000A0000000C000A81
:101D20000000000C000A0000000C000A0000000C7B
:101D3000000A0000000C000A0000000C000A00006D
:101D4000000C000A0000000C000A0000000C000A51
:101D50000000000C000A0000000C000A0000000C4B
:101D6000000A0B0B160C00FF8FC048404FC0084004
:101D7000CFC048004B4048804E40B0008FE00B0B76
:101D8000160C00FF2040AA4071402040FA4031402C
:101D90006840A1E0AE40204020400B0B160C00FF35
:101DA00020002000FDE025202520252025202520BD
:101DB000452045E099200B0B160C00FF03C0FC00EA
:101DC00004007FC004000400FFE0040004000400DD
:101DD0001C000B0B160C00FF0000000000000000B0
:101DE0000040FFE0000000000000000000000B0BBE
:101DF000160C00FF0040FFE0040004000700048010
:101E0000044004000400040004000B0B160C00FF47
:101E1000240024002FE0B400A480A4A0AAC0208045
:101E20002880294032400B0B160C00FF04808FE005
:101E3000490019002FC0090009002FC0490089007E
:101E40000FE00B0B160C00FF10003F8051000E003E
:101E50003180C0603F8024803F8024803F800B0B16
:101E6000160C00FF2280FA4007E0FA808A808A8000
:101E7000FA802280B280AAA064E00B0B160C00FF4F
:101E8000222047409280EFE0220047C0EC4007C08C
:101E90003440C7C004400B0B160C00FF08000FC0F5
:101EA00008000800FFE008000E0009800840080054
:101EB00008000A0B160C00FFFF8000800080808065
:101EC0008080FF8080008000804080407FC00B0BBE
:101ED000160C00FF47C04100EFE04100450069607B
:101EE000C9204D6049204FE0C8200B0B160C00FFA5
:101EF0000800040004000A000A000A001100110092
:101F00002080404080200B0B160C00FF2240220056
:101F1000F7E0220023E03520E520254028802940F5
:101F200072200B0A140C00004440444044407FC01F
:101F300004000400842084208420FFE00B0B160C96
:101F400000FF040000007FC00400040004007FC004
:101F5000040004000400FFE00B0B160C00FFFFE080
:101F6000110001C0FE00488025000400FFE01500BC
:101F70002480C4600B0B160C00FF11007FC044408E
:101F80007FC044407FC00400FFE004000400040060
:101F9000090B160C00FF1000FF8080808080FF80FE
:101FA00080808080FF8080808080FF800B0B160CFB
:101FB00000FF7100010003E0F920212041205120A1
:101FC0008920FA20022004C00B0B160C00FF7FC0F2
:101FD0001100110011001100FFE01100110021009B
:101FE000210041000B0B160C00FF21002200F440E1
:101FF00057E0502057C094405440244057C094406C
:102000000B0B160C00FF11000A007FC00400040037
:10201000FFE004000A0011002080C0600A0B160CCB
:1020200000FF5FC0004084408440BF4084408C403B
:102030009440A4408C4081C00B0B160C00FF240080
:1020400027C024002400FFE0000014402480470043
:102050000C0070000B0B160C00FF248004800FC0D6
:10206000E48024803FE024802480288050008FE09A
:102070000B0B160C00FF08000800FF80888088808A
:10208000FF8088808880FFA0882007E00B0B160C5B
:1020900000FF27802480F480248074806C80A480DA
:1020A000248024A028A030600A0B160C00FFFFC07B
:1020B000804080409E40924092409E4080408040C0
:1020C000FFC080400B0B160C00FF7FC044005FC0B8
:1020D00050405FC050405FC042004A805240A6203E
:1020E0000B0B160C00FF040007E004007FC040400B
:1020F000404040407FC00000524089200B0B160C2E
:1021000000FF4780248004800480E86020002FC006
:1021100024402280310026C00B0B160C00FF7FC02C
:102120004A407FC00400FFE004003F8020802480FC
:102130002480FFE00B0B160C00FF22004FE048202C
:102140004FE0C8004FE04AA05AA06FE04AA04860A4
:102150000B0B160C00FFF3C024402A80F1002280F4
:1021600065E07220A540208023002C000B0B160C8C
:1021700000FF0400FFE080200000FFE004002400D6
:1021800027C0240054008FE00B0B160C00FF73E0F7
:102190001080510023E0FA202AA022A022A0208053
:1021A000214062200B0B160C00FF2200F7802280DA
:1021B0003680E2A025A024606820000052408920DB
:1021C0000B0B160C00FF73C0420042007BE04A403C
:1021D0004A407A404A404240444088400B0B160C2B
:1021E00000FF0800FFE008001FC030405FC09040C3
:1021F0001FC01040104010C00B0B160C00FF020057
:102200007FE0420042005FC0420047004A805240E7
:10221000622082000B0B160C00FFF3C096409180E9
:10222000A660A10097C091009500E7E081008100C1
:102230000B0B160C00FF0F8088804F8008808F806A
:1022400040001FC03540554095403FE00B0B160C39
:1022500000FF27E02080F880208020803880E08008
:1022600020802080208061800B0B160C00FF1FE077
:10227000910057C0144017C0944057C011005540FA
:10228000992023000B0B160C00FF208027E0F24062
:10229000218022403420E2402240224022406440FB
:1022A0000B0B160C00FF410041004FE0E9204920D4
:1022B00049206FE0C92049204920CFE00B0B160CC4
:1022C00000FF2100F1004FE0A920F9202FE0392084
:1022D000E92029202FE028200B0B160C00FF8FE0AF
:1022E00049200920CBA049204FE048204BA04AA01C
:1022F0006BA050E00B0B160C00FF7FC004004440A5
:10230000244024800400FFE00400040004000400D2
:102310000B0B160C00FF820042001FE0C2005FC0E2
:1023200052405FC047004A805240BFE00B0B160C82
:1023300000FF04007FE048807FE048804F8040003D
:102340005FC04840478098600B0B160C00FF0100EF
:10235000EFE0A100A440AFE0A440AFE0A920E92055
:1023600002800C600B0B160C00FF14C0F6A0BC60C2
:10237000A780A880BFE0A920EFE009200FE0092096
:102380000B0B160C00FF7F804080428062805480DF
:102390004880488054A062A0406080200B0B160C3F
:1023A00000FF04007FE040207FE040007DE05420FB
:1023B0004CA0546064A08D600B0B160C00FF8200D3
:1023C0005FE0040008409FE040200A800A804AA0A5
:1023D00092A022600B0B160C00FF41004FE0E8209A
:1023E000428044406820C7C0410041004100CFE026
:1023F0000B0B160C00FF50207D209120FF20112098
:102400007D205520552054205C2010E00B0B160C2D
:1024100000FF3F8020803F802080FFE048007BC09D
:10242000494079404880FB600B0B160C00FF04000C
:1024300004000400248024404440442084200400FC
:1024400004001C000B0B160C00FF04000400040029
:10245000FFE004000A000A00110011002080C060A3
:10246000090A140A0000888049000800FF800080E3
:1024700000807F8000800080FF800B0B160C00FF27
:1024800021001200FFE0000078804A807A804A80B4
:102490007A80488059800B0B160C00FF27C0000083
:1024A0000000EFE02100220024402FE02020500017
:1024B0008FE00B0B160C00FF20802700F90021C0D5
:1024C00077002100F9E027007120A92020E00B0B04
:1024D000160C00FF10401040FDE0104038C03540A1
:1024E000524094401040104010C00B0B160C00FFDF
:1024F0000040F8400BE008408840524051402140E5
:102500005040484089C00A0B160C00FF84008440EC
:102510008480F5008600840084009400A440C440B8
:1025200083C00B0B160C00FF11207D001100FFE093
:102530002900FD4049407C8008A0FD600A200B0B6B
:10254000160C00FF17C02440244067C0A1002FE0F4
:10255000210023802540292021000B0B160C00FFB1
:102560000800FFE0100027C020806100AFE02100DC
:102570002100210023000B0B160C00FF24002FE08C
:10258000B400A480A4A0AAC02A8028802940324098
:1025900024200B0B160C00FF7FE080003FC0204082
:1025A0003FC010001FC010402880470038E00B0BD0
:1025B000160C00FF7FE0400040004000400040005B
:1025C000400040004000400080000B0B160C00FF54
:1025D000FFE004007FC044407FC044407FC044000F
:1025E00024001800E7E00B0B160C00FF11E0FD00C3
:1025F000450029E0FD4011407D401140554092408A
:1026000034400B0B160C00FF21005FE04000CFC0F0
:1026100040004FC040004FC048404FC048400B0BE7
:10262000160C00FF04007FC040407FC040407FC0C8
:1026300040407FC004405220BFA00B0B160C00FF8F
:102640007FC044407FC044407FC004001B00E0E0E6
:102650001100110061000B0B160C00FFFFE00400DD
:1026600008007FE049204F2049204F204920492081
:102670007FE00B0B160C00FFFDE0564079403880E0
:1026800055409220FFE0040027C02400FFE00B0B20
:10269000160C00FFFB8052007BE01240FA40144011
:1026A0003F8020803F8020803F800B0B160C00FF76
:1026B0001FE0200027C06440A7C020002FE0282092
:1026C00027C0210023000B0B160C00FFF3E0822033
:1026D0008220FA20822082208A20B220C2E00200DA
:1026E00002000B0B160C00FF248046A095C0E4806E
:1026F00027E04480F5C006A03480C48007E00B0BBF
:10270000160C00FF27C0410087E0E02022804580B2
:10271000F2800FE03080C14002200B0B160C00FF4E
:1027200002000200220023C0220022002200220018
:1027300022002200FFE0090B160C00FF03E040001E
:10274000BF403FC020403FC010003FC050800F003E
:1027500070E00B0B160C00FF040044404440444062
:102760007FC004000400842084208420FFE00B0B41
:10277000160C00FF7FC0040004000400FFE00A0004
:102780000A0012002220422081E00B0B160C00FFF1
:1027900000007FE04000400040004000400040005A
:1027A0004000400040000B0B160C00FF47802480C7
:1027B00004800480E86020002FC024402280310083
:1027C00022800B0B160C00FF7FC04A407FC0040024
:1027D000FFE004003F80208020802480FFE00B0B7E
:1027E000160C00FF0400040004007FC04440444075
:1027F00044407FC04440040004000B0B160C00FF53
:1028000008000400FFE020802080110011000A0071
:1028100004000A0071C00B0B160C00FF140027E027
:102820002A006200A3C02200220023E0220022002E
:102830002200000000000000000000000000000076
:102840000000000000000000000000000000000088
:102850000000000000000000000000000000000078
:102860000000000000000000000000000000000068
:102870000000000000000000000000000000000058
:102C10000000000000000000000000060900FE07A0
:102C20000192032120FFFF08FF07FF0000000600BC
:102C30000001070706020080808080800080030278
:102C400002060105A0A00507070600005050F85035
:102C5000F850500507070600002078A07028F020E3
:102C6000050707060000C0C8102040981805070790
:102C70000600006090A040A89068020303060104CB
:102C8000C04080030707060100204080808040206C
:102C9000030707060100804020202040800505052D
:102CA00006000120A870A8200505050600012020C7
:102CB000F820200203030602FFC040800501010640
:102CC0000003F8020202060200C0C0050505060066
:102CD00001081020408005070706000070888888DA
:102CE00088887003070706010040C040404040E06C
:102CF000050707060000708808708080F805070740
:102D0000060000F81020100808F00507070600006C
:102D100010305090F81010050707060000F880F0FA
:102D200008088870050707060000708080F0888812
:102D300070050707060000F808102020202005076E
:102D400007060000708888708888700507070600ED
:102D50000070888878080870020505060200C0C067
:102D600000C0C00206060602FFC0C000C0408004CA
:102D700007070600001020408040201005030306CE
:102D80000002F800F8040707060100804020102028
:102D90004080050707060000708808102000200505
:102DA000070706000070880868A8A87005070706CE
:102DB0000000708888F8888888050707060000F0FA
:102DC0008888F08888F005070706000070888080F2
:102DD000808870050707060000F08888888888F0DA
:102DE000050707060000F88080F08080F8050707D7
:102DF000060000F88080F08080800507070600004C
:102E0000708880B888887005070706000088888861
:102E1000F88888880107070602008080808080800B
:102E20008005070706000038101010109060050795
:102E3000070600008890A0C0A0908805070706003C
:102E400000808080808080F805070706000088D811
:102E5000A8888888880507070600008888C8A89879
:102E600088880507070600007088888888887005AC
:102E70000707060000F08888F080808005070706B5
:102E8000000070888888A89068050707060000F091
:102E90008888F0A090880507070600007880807079
:102EA0000808F0050707060000F820202020202051
:102EB0000507070600008888888888887005070746
:102EC00006000088888888885020050707060000CB
:102ED0008888888888A850050707060000888850D9
:102EE0002050888805070706000088888850202021
:102EF00020050707060000F80810204080F80307A7
:102F000007060100E08080808080E005050506005E
:102F1000018040201008030707060100E020202060
:102F20002020E00503030600042050880501010667
:102F30000000F802020206020580400505050600B1
:102F40000070087888780507070600008080B0C800
:102F50008888F005050506000070808088700507E8
:102F600007060000080868988888780505050600A7
:102F7000007088F880700507070600003048E040C0
:102F80004040400506060600FF70888878087005F6
:102F900007070600008080B0C888888801070706F8
:102FA0000200800080808080800308080601FF20E6
:102FB0000020202020A04004070706000080809009
:102FC000A0C0A090030707060100C0404040404059
:102FD000E0050505060000D0A8A8A8A80505050677
:102FE0000000B0C88888880505050600007088883C
:102FF00088700506060600FFF08888F080800506C8
:10300000060600FF78888878080805050506000090
:10301000B0C880808005050506000070807008F04B
:103020000407070600004040E04040403005050529
:1030300006000088888898680505050600008888CD
:103040008850200505050600008888A8A8500505B9
:103050000506000088502050880506060600FF88F7
:103060008888780870050505060000F8102040F8EB
:103070000307070601002040408040402001070769
:1030800006020080808080808080030707060100A0
:103090008040402040408005020206000268900007
:1030A000000006000000000006000000000006000E
:1030B0000000000006000000000006000000000004
:1030C00006000000000006000000000006000000EE
:1030D00000000600000000000600000000000600DE
:1030E00000000000060000000000060000000000D4
:1030F00006000000000006000000000006000000BE
:1031000000000600000000000600000000000600AD
:1031100000000000060000000000060000000000A3
:10312000060000000000060000000000060000008D
:10313000000006000000000006000000000006007D
:103140000000000006000000000006000000000073
:10315000060000000000060000000000060000005D
:10316000000006000000000006000001070706023C
:1031700000800080808080800507070600002070A6
:10318000A8A0A87020050707060000304040E040D6
:1031900050A80505050600008870507088050707CF
:1031A000060000885020F820F820010707060200DA
:1031B000808080008080800508080600003048205C
:1031C0005050209060030101060107A00507070683
:1031D0000000F888B8B8B888F8050707060001703D
:1031E0000878887800F80505050600012850A050E9
:1031F00028050303060001F8080802020206020679
:103200004080050707060000F888A88898A8F805F8
:103210000101060006F804040406000360909060B3
:103220000507070600002020F8202000F804050507
:1032300006000360902040F0030505060003E0202F
:10324000E020E002020206020640800508080600AF
:10325000FF8888888898E88080050707060000783E
:10326000989878181818020202060202C0C00202DA
:10327000020602FF408003050506000340C04040EF
:10328000E0050707060001708888887000F80505CA
:1032900005060001A0502850A00507070600008879
:1032A00090A858B808080507070600008890B84895
:1032B000982038050808060000C040C048D83808E3
:1032C00008050707060000200020408088700508D8
:1032D000080600004020007088F888880508080665
:1032E00000001020007088F8888805080806000093
:1032F0002050007088F8888805080806000068904B
:10330000007088F88888050808060000500070885A
:1033100088F888880508080600002050207088F882
:1033200088880507070600003860A0B8E0A0B80547
:1033300008080600FF7088808088702060050808F3
:10334000060000402000F880F080F805080806001C
:1033500000081000F880F080F8050808060000203A
:103360005000F880F080F80507070600005000F8CC
:1033700080F080F8030808060100804000E040402B
:1033800040E0030808060100204000E0404040E023
:1033900003080806010040A000E0404040E00307A9
:1033A00007060100A000E0404040E00507070600D6
:1033B00000704848E8484870050808060000689012
:1033C0000088C8A898880508080600004020708872
:1033D0008888887005080806000010207088888892
:1033E00088700508080600002050007088888870E2
:1033F0000508080600006890007088888870050835
:103400000806000050007088888888700505050649
:10341000000188502050880508080600FF1070A899
:10342000A8A8A870400508080600004020888888E1
:103430008888700508080600001020888888888819
:1034400070050808060000205000888888887005EC
:1034500008080600005000888888888870050808D9
:1034600006000010208850202020200509090600B1
:10347000FFC040704848704040E00408080601FF63
:10348000609090A09090E080050808060000402021
:103490000070087888780508080600001020007081
:1034A0000878887805080806000020500070087821
:1034B0008878050808060000689000700878887809
:1034C000050707060000500070087888780508088E
:1034D000060000205020700878887805060606004F
:1034E00000D02878A0A8500506060600FF70808846
:1034F0007020600508080600004020007088F880F1
:10350000700508080600001020007088F88070051B
:1035100008080600002050007088F8807005070732
:1035200006000050007088F880700308080601004B
:1035300080400040C04040E00308080601002040F1
:103540000040C04040E003080806010040A00040E1
:10355000C04040E0030707060100A00040C0404013
:10356000E0050707060000A040A010788870050855
:1035700008060000689000B0C8888888050808061A
:103580000000402000708888887005080806000048
:1035900010200070888888700508080600002050F8
:1035A0000070888888700508080600006890007020
:1035B0008888887005070706000050007088888892
:1035C000700505050600012000F800200507070624
:1035D00000FF1070A8A8A870400508080600004069
:1035E00020008888889868050808060000102000D8
:1035F0008888889868050808060000205000888898
:103600008898680507070600005000888888986831
:103610000509090600FF102000888888F808700452
:1036200007070601FFC04060506040E0050808063B
:1036300000FF50008888887808700000210024006E
:1036400027002A002D003000330001010000040192
:1036500007010A0100002200250028002B002E008F
:103660003100340002010000050108010B010000D7
:1036700020002300260029002C002F00320000012A
:1036800000000301060109010505050507050808F5
:103690000808020202020A0A0808040404040101DC
:1036A00001010101010103030303030303030407F1
:1036B00007070C0C0C0C0C0C0C0C02020202060688
:1036C0000606060606060B0B0B0B0B0B0B0B01027B
:1036D0001020200808102040102040800201020124
:1036E00008040201010204081020408080402010DC
:1036F0000804020180040201804020100804020135
:10370000080402010102040810204080010204089C
:103710001020408000000A0B02090C0D0E08070360
:103720000401000000000000000000000000000094
:103730000000000000000000000000000000000089
:103740001211100000000000000000000000000046
:10375000000000000000000000004E6F004E6F00EF
:103760004E6F00596573005965730059657300CC3D
:10377000DFD8DDC4BBB2B6B23F00F4F5CAF33F00F8
:10378000526573756D65207072696E743F0000003C
:103790000000000000000000000000000000000029
:1037A0000000000000000000000000000000000019
:1037B0000000000000000000000000000000000009
:1037C00000000000000000000000000000000000F9
:1037D00000000000000000000000000000000000E9
:1037E00000000000000000000000000000000000D9
:1037F00000000000000000000000000000000000C9
:1038000000000000000000000000000000000000B8
:1038100000000000000000000000000000000000A8
:103820000000000000000000000000000000000098
:103830000000000000000000000000000000000088
:103840000000000000000000000000000000000078
:103850000000000000000000000000000000000068
:103860000000000000000000000000000000000058
:103870000000000000000000000000000000000048
:103880000000000000000000000000000000000038
:103890000000000000000000000000000000000028
:1038A0000000000000000000000000000000000018
:1038B0000000000000000000000000000000000008
:1038C00000000000000000000000000000000000F8
:1038D00000000000000000000000000000000000E8
:1038E00000000000000000000000000000000000D8
:1038F00000000000000000000000000000000000C8
:10390000000000000C0000000000007C000001FC32
:10391000000000007C038000000000C63F80031C04
:10392000000000000C038030000000C318C0060C2B
:10393000000000000C000030000000C31860060CFE
:10394000000000000C0000300000000318300C00E4
:10395000F787C1F80C0780FE3DE0000618300C0028
:103960003D8C630C0C01803018C0001E18300C0018
:103970003818330C0C0180300D80000318300C0017
:103980003018303C0C0180300D80000198300C0064
:10399000301FF1EC0C0180300D80000198300C0CD0
:1039A0003018030C0C018030078000C19830060CE1
:1039B0003018330C0C018030070000C198600718E4
:1039C000300C631F0C018033030000C318C001F0EA
:1039D000FC07C1FF7F87E01E0300007E3F800000E0
:1039E00000000000000000000600000000000000D1
:1039F00000000000000000001E00000000000000A9
:103A000000000000000000001C000000000000009A
:103A100000000000000000000000000000000000A6
:103A20000000000000000000000000000000000096
:103A30000000000000000000000000000000000086
:103A40000000000000000000000000000000000076
:103A50000000000000000000000000000000000066
:103A60000000000000000000000000000000000056
:103A70000000000000000000000000000000000046
:103A80000000000000000000000000000000000036
:103A90000000000000000000000000000000000026
:103AA0000000000000000000000000000000000016
:103AB0000000000000000000000000000000000006
:103AC00000000000000000000000000000000000F6
:103AD00000000000000000000000000000000000E6
:103AE00000000000000000000000000000000000D6
:103AF00000000000000000000000000000000000C6
:103B000000000000000000000000000000000000B5
:103B100000000000000000000000000000000000A5
:103B20000000000000000000000000000000000095
:103B30000000000000000000000000000000000085
:103B40000000000000000000000000000000000075
:103B50000000000000000000000000000000000065
:103B60000000000000000000000000000000000055
:103B70000000000000000000000000000000000045
:103B8000000000000000000000000000000009200C
:103B9000000920002D2D2D2E2D2D002D2D2D002D39
:103BA0002D2D002D2D2D002D2D3A2D2D003DF00217
:103BB00038F000000000000000003FFFF0448806DD
:103BC00045100000000000000000380070808802EE
:103BD0004500000000000000000030FC3080F002D2
:103BE0004480000000000000000020FC1080A3F2D0
:103BF0004460000000000000000020781080900267
:103C000044100000000000000000203010809002EE
:103C1000441000000000000000002C00D044880286
:103C200045101FE00000104100002E31D039CC07B4
:103C300039E03FF00000082080002F7BD00000001A
:103C400000003FF00000082080002F7BD00038707B
:103C5000E0003FF00000104100002E31D000448908
:103C600010001FE00000208200002C00D00004891A
:103C700010001FE0000041040000203010001889EF
:103C800010003FF00000410400002078100004897B
:103C900010003FF000002082000020FC100004898A
:103CA00010003FF000001041000030FC300004899B
:103CB00010000FC0000000000000380070004489B0
:103CC000100007800000FFFFC0003FFFF0003870C9
:103CD000E00003000000FFFFC0000000003DF00214
:103CE00038F000000000000000003FFFF0448806AC
:103CF00045100000000000000000380070808802BD
:103D00004500000000000000000033873080F00212
:103D10004480000000000000000027879080A3F28C
:103D2000446000000000000000002F87D080900257
:103D3000441000000000000000002F87D080900297
:103D4000441000000000000000002F03D04488024F
:103D500045101FE000000820800020301039CC07FB
:103D600039E03FF00000041040002078100000000F
:103D700000003FF000000410400020781000387070
:103D8000E0003FF00000082080002030100044894F
:103D900010001FE00000104100002F03D000048934
:103DA00010001FE00000208200002F87D00018893B
:103DB00010003FF00000208200002F87D00004890F
:103DC00010003FF000001041000027879000048998
:103DD00010003FF000000820800033873000048985
:103DE00010000FC00000000000003800700044897F
:103DF000100007800000FFFFC0003FFFF000387098
:103E0000E00003000000FFFFC00000000047323860
:103E1000205830205930004E6F00596573005265AC
:103E200073756D65207072696E743F00000609003D
:103E3000FE000000000001090008FE00000508085F
:103E400006000040F0C88888987810050808060029
:103E500000C0F88888888888F805050506000120D4
:103E600030F830200508080600002070F8202020D7
:103E700020E00509090600FF2070A8A8B88888700E
:103E8000200509090600FFE080C0B0A828302828D6
:103E90000509090600FFF8A88888888888A8F80519
:103EA0000A0A0600FE205050505088A8A8887003C7
:103EB000030306000340A0406563686F3A002E0AC2
:103EC000006F70656E206661696C65642C204669C0
:103ED0006C653A200057726974696E6720746F20B0
:103EE00066696C653A2000CCA7DDBFB8C4DE00D59A
:103EF000D6D1D20046616E20737065656400CDDE58
:103F0000AFC4DE00C4C700426564004E6F7A7A6CAD
:103F10006531004E6F7A7A6C6531004E6F7A7A6C3B
:103F2000653100BADDC4DBB0D900D8D900436F6E6B
:103F300074726F6C00D2B2DD00AEAFB0004D61693B
:103F40006E0046616E2073706565640042656400B2
:103F50004E6F7A7A6C653100436F6E74726F6C00CD
:103F60004D3234004D323320257300022E2E0001D5
:103F700052656672657368004D61696E00457272C4
:103F80003A204368616E67652046696C616D656EB5
:103F90007400473238005A0058595A0047323800E6
:103FA000473238205830205930004D3130392053B5
:103FB0002569004D31343020532569004D313036AC
:103FC0002053323535004D31303920532569004DAD
:103FD00031393020532569004B6420002364656625
:103FE000696E65202044454641554C545F004B693D
:103FF000200023646566696E65202044454641556E
:104000004C545F004B70200023646566696E652028
:104010002044454641554C545F0050494420417569
:10402000746F74756E652066696E69736865642166
:104030002050757420746865206C617374204B7017
:104040002C204B6920616E64204B6420636F6E737B
:1040500074616E74732066726F6D2062656C6F7729
:1040600020696E746F20436F6E6669677572617444
:10407000696F6E2E6800504944204175746F7475E5
:104080006E65206661696C6564212074696D656F79
:1040900075740020403A00543A00423A00504944B6
:1040A000204175746F74756E65206661696C656416
:1040B000212054656D706572617475726520746F2E
:1040C0006F206869676800204B643A2000204B69C4
:1040D0003A2000204B703A200020436C61737369D2
:1040E000632050494420002054753A2000204B752D
:1040F0003A2000206D61783A2000206D696E3A20E8
:104100000020643A200020626961733A20006265F1
:1041100064002C2073797374656D2073746F7070F4
:10412000656421204865617465725F49443A2000E6
:104130005344B6B0C4DEBBB2D6D0BAD000496E6923
:10414000742E205344206361726400496E69742E9A
:104150002053442063617264005344B6B0C4DEB699
:10416000DEB1D8CFBEDD00F9A8004E6F2053442049
:1041700063617264005344B6B0C4DEBAB3B6DD0006
:104180004368616E67652053442063617264004335
:1041900068616E6765205344206361726400534414
:1041A000B6B0C4DEB6D7CCDFD8DDC4005344A8CA4D
:1041B000F3005072696E742066726F6D2053440074
:1041C000CCDFD8DDC4C3B2BC00F2F6CAF30053742E
:1041D0006F70207072696E7400CCDFD8DDC4BBB222
:1041E000B6B200F4F5CAF300526573756D652070C0
:1041F00072696E7400B2C1BCDEC3B2BC00F1F2CA17
:10420000F3005061757365207072696E74004C61C3
:104210006E6775616765004C616E67756167650003
:104220004C616E677561676500C1AEB3BEB200CF09
:10423000F00054756E6500B2DDCCAB00ECEDEEEF36
:1042400000496E666F2073637265656E00CBDEC4D5
:10425000DEB3205A004261627973746570205A009F
:104260004261627973746570205A00B5B8D8D8AECF
:10427000B300CCADD1D200466C6F7700C9BDDED99A
:1042800000D3D4004E6F7A7A6C6500BDCBDFB0C42A
:10429000DE00D1D200537065656400B6C8C2C3B2F7
:1042A000BC00C8C900436F6F6C646F776E004142F9
:1042B0005320D6C8C200C3C4204142530050726587
:1042C000686561742041425300504C4120D6C8C2F9
:1042D00000C3C420504C4100507265686561742071
:1042E000504C4100D3B0C0B0C3DEDDB9DEDD20B537
:1042F000CC00B5B6B7B8B9BA0044697361626C65F1
:1043000020737465707065727300436F726E6572AE
:1043100020426564204C6576656C696E6700CFD07D
:1043200000436F726E657220426564204C6576654D
:104330006C696E67004D657368204C6576656C200E
:1043400062656400CFE0C4C7004D657368204C65AA
:1043500076656C2062656400B9DEDDC3DDC6B2C47B
:10436000DEB300BBBCBD004175746F20686F6D6526
:10437000004D323100496E69742E20534420636130
:104380007264004E6F2053442063617264004D32AA
:1043900031004368616E6765205344206361726435
:1043A000005072696E742066726F6D205344005322
:1043B000746F70207072696E7400526573756D65EC
:1043C000207072696E740050617573652070726937
:1043D0006E74004C616E67756167650054756E653B
:1043E00000496E666F2073637265656E004261629C
:1043F000797374657070696E67205A0042616279E2
:1044000073746570205A00466C6F77004E6F7A7A2D
:104410006C650053706565640047323800436F6F08
:104420006C646F776E0050726568656174204142FC
:1044300053005072656865617420504C41004D38DE
:10444000340044697361626C6520737465707065D3
:10445000727300436F726E657220426564204C6512
:1044600076656C696E67004D657368204C6576658E
:104470006C20626564004175746F20686F6D650023
:1044800020496E76616C6964206578747275646524
:1044900072200000009B4300009B430000CD4300BE
:1044A000000000000000000000000000000000000C
:1044B000000000000000005761726E696E673A20CC
:1044C000486F6D696E672042756D7020446976692A
:1044D000736F72203C2031000000A0400000A0401B
:1044E0000000004000009B4300009B430000CD43C0
:1044F000FFFFFF4D383420582059205A2045002511
:104500006920686F757273202569206D696E7574F6
:10451000657300446F6E65207072696E74696E67B2
:104520002066696C65004B494C4C45442E20005375
:10453000544F505045442E20005072696E7465727D
:104540002073746F707065642064756520746F20CB
:104550006572726F72732E204669782074686520C8
:104560006572726F7220616E6420757365204D39BB
:10457000393920746F20726573746172742E20282B
:1045800054656D706572617475726520697320720F
:10459000657365742E205365742069742061667498
:1045A00065722072657374617274696E6729004E5A
:1045B0006F204C696E65204E756D6265722077695B
:1045C000746820636865636B73756D2C204C617330
:1045D00074204C696E653A20004E6F204368656315
:1045E0006B73756D2077697468206C696E65206ED9
:1045F000756D6265722C204C617374204C696E6518
:104600003A2000636865636B73756D206D69736D27
:10461000617463682C204C617374204C696E653A38
:1046200020004C696E65204E756D6265722069735D
:10463000206E6F74204C617374204C696E65204E3F
:10464000756D6265722B312C204C617374204C693E
:104650006E653A20004D3131300043616E6E6F74EB
:1046600020656E746572207375626469723A200009
:10467000B4B8BDC4D9B0C0DEB000CCADBA00457886
:10468000747275646572005ABCDEB820B2C4DEB3C1
:1046900000C1B2205A004D6F7665205A0059BCDE29
:1046A000B820B2C4DEB300C1B22059004D6F7665A8
:1046B00020590058BCDEB820B2C4DEB300C1B2201D
:1046C00058004D6F7665205800BCDEB8B2C4DEB32A
:1046D00000C1B2CE004D6F766520617869730030FD
:1046E0002E316D6D20B2C4DEB300C1B220302E3148
:1046F0006D6D004D6F766520302E316D6D00202080
:10470000316D6D20B2C4DEB300C1B220316D6D00D9
:104710004D6F766520316D6D002031306D6D20B2AA
:10472000C4DEB300C1B22031306D6D004D6F7665CF
:104730002031306D6D004E657874205374657000C3
:10474000A2A1B7004E657874205374657000BCDE7A
:10475000ADDDCBDEBEAFC3B200A4A5005072657064
:1047600061726500BEAFC3B2D8BEAFC400A3F7F894
:10477000FAFBFC00526573746F7265206661696CA8
:104780007361666500B5DDC4DE00C9D20054656D95
:104790007065726174757265004368696E657365F2
:1047A00000FDFE004368696E65736500456E676CC9
:1047B00069736800456E676C69736800456E676C65
:1047C0006973680045787472756465720045787421
:1047D0007275646572004D6F7665205A004D6F7674
:1047E000652059004D6F76652058004D6F76652025
:1047F00061786973004D6F766520302E316D6D00E4
:104800004D6F766520316D6D004D6F7665203130CE
:104810006D6D0047312046323030205A3300473129
:104820002046323030205A2D330047312058313560
:104830003020593135302046353030300047312076
:1048400046323030205A3300473120463230302053
:104850005A2D33004731205933302046353030301F
:104860000047312046323030205A3300473120464D
:10487000323030205A2D3300473120583237302023
:1048800046353030300047312046323030205A3300
:104890000047312046323030205A2D330047312036
:1048A00059323730204635303030004731204632DB
:1048B0003030205A330047312046313030205A2DD5
:1048C00033004731205833302059333020463530BB
:1048D0003030004739300047312046313030205ADF
:1048E000333B00473238205830205930205A3000AE
:1048F0004E657874205374657000507265706172F3
:104900006500526573746F7265206661696C7361CE
:1049100066650054656D70657261747572650043FB
:1049200068696E65736500456E676C69736800241D
:10493000F4D43050C38E20C2A24017828B70111263
:104940007A910D816CD90AA861E108C758660761A0
:104950005143061E4B5D05C145A7041A41110409C8
:104960003D9803713931034036DB0265339102D43F
:10497000305402802E1D02632CEE01752AC501B051
:1049800028A001102781018F2564012B244B01E011
:10499000223401AC211F018D200D01801FFC0084F9
:1049A0001EED00971DDF00B81CD200E61BC60020DC
:1049B0001BBC00641AB200B219A8000A19A0006A50
:1049C000189900D117910040178B00B5168400315B
:1049D000167E00B31579003A157300C7146F00589E
:1049E000146A00EE1366008813630025135E00C787
:1049F000125B006C12570015125400C11151007067
:104A0000114F0021114B00D61049008D1047004670
:104A100010440002104200C00F4000800F3E0042D0
:104A20000F3C00060F3B00CB0E3800930E37005CA6
:104A30000E3500270E3400F30D3200C10D31009009
:104A40000D3000600D2E00320D2D00050D2C00D90B
:104A50000C2B00AE0C2900850C29005C0C270035BE
:104A60000C27000E0C2600E80B2400C40B2400A029
:104A70000B23007D0B23005A0B2100390B2100185A
:104A80000B2000F80A1F00D90A1E00BB0A1E009D59
:104A90000A1D00800A1D00630A1C00470A1B002C27
:104AA0000A1B00110A1A00F7091A00DD091900C4CF
:104AB000091900AB091900920917007B0918006356
:104AC0000917004C09160036091600200916000ABD
:104AD000091500F5081500E0081400CC081400B80A
:104AE000081400A4081400900813007D0812006B3D
:104AF0000813005808120046081200340811002359
:104B00000811001208110001081100F0071000E060
:104B1000071000D0071000C0071000B0070F00A159
:104B200007100091070E0083070F0074070F006540
:104B3000070E0057070E0049070E003B070D002E19
:104B4000070E0020070D0013070D0006070D00F9E2
:104B5000060C00ED060D00E0060C00D4060C00C8A3
:104B6000060C00BC060C00B0060C00A4060B009955
:104B7000060C008D060B0082060B0077060B006CFE
:104B8000060B0061060A0057060B004C060A00429D
:104B9000060A0038060A002E060A0024060A001A31
:104BA000060A001006090007060A00FD050900F4C0
:104BB000050900EB050900E2050900D9050900D047
:104BC000050900C7050900BE050900B5050800ADC7
:104BD000050800A50509009C050800940508008C3F
:104BE000050800840508007C050800740508006CB1
:104BF000050700650508005D050700560508004E1D
:104C00000507004705070040050800380507003183
:104C10000507002A050700230507001C05060016E6
:104C20000507000F0507000805060002050700FB41
:104C3000040600F5040700EE040600E8040600E29E
:104C4000040700DB040600D5040600CF040600C9F3
:104C5000040600C3040600BD040600B7040600B144
:104C6000040500AC040600A6040600A00405009B91
:104C700004060095040500900406008A04050085DA
:104C8000040500800406007A040500750405007020
:104C90000405006B04050066040500610405005C62
:104CA00004050057040500520405004D04050048A2
:104CB000040500430405003E0404003A04050035E1
:104CC000040500300404002C04050027040400231C
:104CD0000405001E0404001A040400160405001153
:104CE0000404000D04040009040500040404000089
:104CF000040400FC030400F8030400F4030400F0BF
:104D0000030400EC030400E8030400E4030400E0EF
:104D1000030400DC030400D8030400D4030400D01F
:104D2000030400CC030400C8030300C503030024EC
:104D3000F404D9201BC40C5C0E9804C4095F0265FE
:104D4000077101F405F900FB04B30048048700C1B2
:104D50000369005803550003034500BE023A00846E
:104D600002310053022A002902250004022000E437
:104D7000011C00C8011900AF01170098011400843C
:104D8000011300710110006101100051010E004378
:104D9000010D0036010B002B010B0020010B00154B
:104DA0000109000C01090003010800FB000800F3E1
:104DB000000800EB000700E4000600DE000600D853
:104DC000000600D2000600CC000500C7000500C2A6
:104DD000000500BD000400B9000400B5000400B1E6
:104DE000000400AD000400A9000400A5000300A217
:104DF0000003009F0004009B00030098000300953F
:104E000000020093000300900003008D0002008B5D
:104E10000003008800020086000200840003008175
:104E20000002007F0002007D0002007B000200798A
:104E30000002007700010076000200740002007298
:104E4000000100710002006F0002006D0001006CA3
:104E50000002006A000100690002006700010066AC
:104E600000010065000100640002006200010061B1
:104E7000000100600001005F0002005D0001005CB5
:104E80000001005B0001005A0001005900010058B8
:104E900000010057000100560001005500010054B8
:104EA00000010053000000530001005200010051B6
:104EB000000100500001004F0001004E0000004EB4
:104EC0000001004D0001004C0001004B0000004BB0
:104ED0000001004A000100490001004800000048AC
:104EE00000010047000100460000004600010045A7
:104EF00000000045000100440001004300000043A1
:104F00000001004200000042000100410000004199
:104F1000000100400001003F0000003F0001003E92
:104F20000000003E0001003D0000003D0001003C8B
:104F30000000003C0000003C0001003B0000003B82
:104F40000001003A0000003A000100390000003979
:104F50000001003800000038000000380001003770
:104F60000000003700010036000000360000003667
:104F7000000100350000003500000035000100345C
:104F80000000003400000034000100330000003352
:104F90000000003300010032000000320000003247
:104FA000000100310000003100000031000100303C
:104FB00000000030000000300001002F0000002F32
:104FC0000000002F0000002F0001002E0000002E26
:104FD0000000002E0001002D0000002D0000002D1B
:104FE0000000002D0001002C0000002C0000002C0F
:104FF0000000002C0001002B0000002B0000002B03
:105000000000002B0001002A0000002A0000002AF6
:105010000000002A000100290000002900000029EA
:1050200000000029000000290001002800000028DD
:1050300000000028000000280000002800010027D0
:1050400000000027000000270000002700000027C4
:1050500000010026000000260000002600000026B7
:1050600000000026000100250000002500000025AA
:10507000000000250000002500000025000100249C
:105080000000002400000024000000240000002490
:105090000001002300000023000000230000002383
:1050A0000000002300000023000000230001002274
:1050B0000000002200000022000000220000002268
:1050C000000000220001002100000021000000215A
:1050D000000000210000002100000021000000214C
:1050E000000100200000002000000020000000203F
:1050F0000000002000000020000000200000002030
:105100000001001F0000001F0000001F0000001F22
:105110000000001F0000001F0000001F0001001E13
:105120000000001E0000001E0000001E0000004DD8
:10513000383420582059205A20450020746F6F20A1
:105140006C6F6E6720657874727573696F6E20700E
:10515000726576656E7465640020636F6C642065AB
:105160007874727573696F6E2070726576656E748F
:1051700065640070012C0190012701B0012201C07B
:10518000011D01F00118011002130130020E01602F
:1051900002090190020401C002FF000003FA00406E
:1051A00003F5008003F000D003EB002004E600705C
:1051B00004E100E004DC004005D700C005D2004057
:1051C00006CD00D006C8008007C3003008BE00F03E
:1051D00008B900C009B400B00AAF00B00BAA00D0F3
:1051E0000CA500000EA000500F9B00C010960050B0
:1051F00012910000148C00C0158700B0178200B017
:10520000197D00D01B7800001E730040206E0090B6
:10521000226900F024640040275F0090295A00E0D2
:105220002B5500102E500020304B0010324600E06D
:1052300033410090353C001037370070383200A001
:10524000392D00B03A2800A03B2300603C1E00101E
:105250003D1900903D1400103E0F00703E0A00C042
:105260003E0500003F0000544845524D414C20523D
:10527000554E4157415900546865726D616C20521A
:10528000756E61776179004572723A204D415854CC
:10529000454D50004D415854454D5020747269673A
:1052A0006765726564004572723A204D494E5445F7
:1052B0004D50004D494E54454D50207472696767FA
:1052C00065726564004572723A204D494E54454DF1
:1052D0005020424544004D494E54454D5020747273
:1052E00069676765726564004572723A204D41587E
:1052F00054454D5020424544004D415854454D5071
:105300002074726967676572656400526573656EC3
:10531000643A20006F6B0048656174696E672066AF
:1053200061696C65640048656174696E67206661D7
:10533000696C6564004D363030004B494C4C454437
:105340002E20004B494C4C45442E20005072696E73
:105350007465722068616C7465642E206B696C6C76
:1053600028292063616C6C65642100001CD466D917
:1053700011241FBECFEFD1E2DEBFCDBF00E00CBFD6
:1053800016E0A0E0B2E0E8E5F2ED01E00BBF02C0FC
:1053900007900D92AA31B107D9F72CE1AAE1B6E046
:1053A00001C01D92A33FB207E1F719E2C7EBD9E2B2
:1053B00000E006C021970109802FFE010E9481E8CC
:1053C000C63BD10780E00807A9F70E9464C30C948C
:1053D0001BE90C9400002F923F924F925F926F92C4
:1053E0007F928F929F92AF92BF92CF92DF92EF9275
:1053F000FF920F931F93CF93DF93CDB7DEB7C455C2
:10540000D1090FB6F894DEBF0FBECDBF20913B0B84
:1054100030913C0B40E6429FC001439F900D112408
:105420008554964F90932A06809329068091AB026B
:1054300080FF22C0E8EBFEE38491882341F0909145
:10544000C00095FFFCCF8093C6003196F5CFE09168
:105450002906F0912A068191882339F09091C000A5
:1054600095FFFCCF8093C600F6CF8091C00085FFEA
:10547000FCCF8AE08093C6002091290630912A064D
:10548000F90180812F5F3F4F8032D1F3F0932A06DC
:10549000E09329068E3461F00091290610912A06C6
:1054A0006AE270E0C8010E94E3E80097D1F420C0EE
:1054B000818190ED980F9A3010F08D3269F7329615
:1054C000DF0131962C9120532A30D0F3CD01FC011D
:1054D000019620812032D9F3F0932A06E093290621
:1054E000DBCFFC0131968291803281F08A3271F0FB
:1054F000D8012C9111968C9180538A3010F00C9425
:10550000813E109322060093210602C01082EBCF49
:10551000E0912106F091220680818F7D31F0319655
:10552000F0932206E0932106F3CFE0912106F0915B
:1055300022068081803231F43196F0932206E09386
:105540002106F3CF1093200600931F0665962FAF18
:1055500065970E94583F65962FAD65972D3409F4E5
:1055600062C5243511F40C94DA3D273411F00C9403
:10557000813E8430910509F478C14CF497FF02C054
:105580000C946D3E823091050CF066C118C08A35CE
:10559000910509F4DAC44CF48C31910509F4A7C1E2
:1055A0004D9709F468C20C946D3E8B35910509F452
:1055B000D0C48C35910509F4D1C40C946D3E809112
:1055C0008C02882311F40C946D3E0E94993F8EEB5F
:1055D00095E10E946EBF0E9428418091AB0283FD3D
:1055E0009AC0C090CA15D090CB15E090CC15F09021
:1055F000CD152091640B3091650B4091660B509155
:10560000670BC701B6010E94DEE44B015C0120E09C
:1056100030E0A9010E94F5DE882309F47CC0E09106
:10562000BD15B4E0EB9FF0011124EC53F24F209133
:10563000A7023091A8024091A9025091AA0260816C
:105640007181828193810E94F5DE87FF29C0C0921B
:10565000640BD092650BE092660BF092670BE8EB5F
:10566000FEE38491882341F09091C00095FFFCCF28
:105670008093C6003196F5CFE5EEF2E08491882361
:1056800041F09091C00095FFFCCF8093C600319609
:10569000F5CF8091C00085FFFCCF8AE08093C600E3
:1056A000C501B4010E943EE697FF07C09095809522
:1056B000709561957F4F8F4F9F4F6D36724081057A
:1056C00091054CF1C092640BD092650BE092660B91
:1056D000F092670BE8EBFEE38491882341F0909110
:1056E000C00095FFFCCF8093C6003196F5CFE7EC64
:1056F000F2E08491882341F09091C00095FFFCCFA7
:105700008093C6003196F5CF8091C00085FFFCCF15
:105710008AE08093C6004090BE155090BF156090FF
:10572000C0157090C115A30192016091580B709142
:10573000590B80915A0B90915B0B0E94F5DE811101
:105740001AC02091C2153091C3154091C4155091D3
:10575000C51560915C0B70915D0B80915E0B909113
:105760005F0B0E94F5DE811106C00E94023F0E947D
:10577000DF3E0C946D3EA090CA15B090CB15C09042
:10578000CC15D090CD152091C6153091C7154091FC
:10579000C8155091C9152C962CAF3DAF4EAF5FAFD9
:1057A0002C978091C2159091C315A091C415B0910A
:1057B000C51560968CAF9DAFAEAFBFAF60978FEF52
:1057C0008F938F9320E030E040E752E460911F0216
:1057D0007091200280912102909122020E94CDE5D9
:1057E00064966CAF7DAF8EAF9FAF649760918F0270
:1057F00070919002072E000C880B990B0E94FBDE23
:1058000020E030E048EC52E40E94CDE59B01AC0181
:1058100064966CAD7DAD8EAD9FAD64970E94C3DA8A
:105820009F938F937F936F932C96ECACFDAC0EAD52
:105830001FAD2C9760962CAD3DAD4EAD5FAD609722
:10584000C301B2010E94C8920F900F900F900F9069
:105850000F900F900C946D3E21E0029709F020E02C
:10586000822F0E9433410C946D3E80E50E94453F9B
:10587000882329F00E94653F6B017C0103C0C12C85
:10588000D12C760183E50E94453F882361F00E9478
:10589000703F20E030E04AE754E40E94C3DA0E94FF
:1058A00044E66B017C010E947A810E94284180912C
:1058B000D01B9091D11BA091D21BB091D31BC80ECD
:1058C000D91EEA1EFB1E0E940879811104C08FEFC9
:1058D00092E00E94FD720E948F636C157D058E051B
:1058E0009F0510F00C946D3E0E9487BAF4CF0E9481
:1058F0007A81E09066121092661280911F02909158
:105900002002A0912102B09122028093250690935B
:105910002606A0932706B093280680918F029091C7
:105920009002909324068093230684E690E090935F
:10593000900280938F020E94284181E080931E0292
:105940000E94D53E10921F02109220021092210256
:105950001092220288E50E94453FF82E89E50E94B8
:10596000453F082F8AE50E94453F182FF11005C0DA
:10597000011105C091E0982705C0011102C090E017
:1059800001C0982F90930002911102C0FF2021F0D6
:1059900080E090E00E94258F80910002811102C07A
:1059A000002321F081E090E00E94258F8091000289
:1059B000811102C0112321F082E090E00E94258F26
:1059C0000E94E93E10921E02EE20B9F180E090E0C4
:1059D000A0E2B1E48093580B9093590BA0935A0B1B
:1059E000B0935B0B80935C0B90935D0BA0935E0B6D
:1059F000B0935F0B0E94D53E80E090E8ABE3B5E446
:105A000080931F0290932002A0932102B093220260
:105A10000E94023F0E947A8180E090E0A0E8B0E41A
:105A20008093600B9093610BA093620BB093630B18
:105A30000E94E93E81E08093661280912506909154
:105A40002606A0912706B091280680931F02909306
:105A50002002A0932102B09322028091230690910C
:105A600024069093900280938F020E942841109206
:105A7000BA090C946D3E83E50E94453F8823D9F016
:105A80000E94583F8C010497C0F0E0E0F4E084915C
:105A9000882341F09091C00095FFFCCF8093C60011
:105AA0003196F5CF8091C00085FFFCCF8AE08093CE
:105AB000C6000C946D3E00E010E00230110509F4C0
:105AC000ADC00330110509F4BFC10130110509F45F
:105AD00095C080916612811103C0E2EEF3E082C0AE
:105AE000E8EDF3E08491882341F09091C00095FFA8
:105AF000FCCF8093C6003196F5CF63E070E080E084
:105B000090E00E9415708091C00085FFFCCF8CE270
:105B10008093C60063E070E080E090E00E94157022
:105B2000E5ECF3E08491882341F09091C00095FF6B
:105B3000FCCF8093C6003196F5CF64E070E080E042
:105B400090E00E941570E3EBF3E08491882341F02C
:105B50009091C00095FFFCCF8093C6003196F5CFA1
:105B60008091C00085FFFCCF8AE08093C600F6E6F6
:105B7000EF2EF2E1FF2EAAE0DA2E00E010E0E0EBDB
:105B8000F3E08491882341F09091C00095FFFCCF11
:105B90008093C6003196F5CFF701E00FF11F6181C8
:105BA00072818381948145E00E943B700C5F1F4F9E
:105BB0000C30110521F78091C00085FFFCCFD092F9
:105BC000C6009CE0E90EF11CAAE8EA16A2E1FA067A
:105BD000A1F60C946D3E9091C00095FFFCCF809390
:105BE000C600319684918111F6CF8091C00085FF67
:105BF000FCCF8AE08093C6000C946D3E0E943A4E22
:105C0000109202021092010285EA93E09093A80D8F
:105C10008093A70D0E94A5400C946D3E80910102D7
:105C20009091020297FF16C0EDE7F3E0849188237C
:105C300041F09091C00095FFFCCF8093C600319653
:105C4000F5CF8091C00085FFFCCF8AE08093C6002D
:105C50000C946D3E009779F480E090E0A0E8B0E409
:105C60008093600B9093610BA093620BB093630BD6
:105C70000E94E93E56C0019763E070E00E946EE822
:105C800060FF04C0F801E81BF90BCF01FB01EE0F28
:105C9000FF1FE60FF71FE80FF91FEE0FFF1FEE0FB4
:105CA000FF1FEA59FD4E8091600B9091610BA0910E
:105CB000620BB091630B81839283A383B48380E0F2
:105CC00090E0A0E8B0E48093600B9093610BA09308
:105CD000620BB093630B20915C0B30915D0B409194
:105CE0005E0B50915F0B6091580B7091590B809136
:105CF0005A0B90915B0BE091BD15EF93812C912C89
:105D000018E4A12E12E4B12E04E6C02E0BE0D02E32
:105D1000E12CF12C00E810E40E9404A80E947A8192
:105D20000F908091010290910202893091050CF050
:105D300064C063E070E00E946EE88B0160FF06C003
:105D400022E030E0A901481B590BCA0121E9F22EDB
:105D5000F89EB001F99E700D1124665F7F4F072EEB
:105D6000000C880B990B0E94FBDE2B013C01609319
:105D7000580B7093590B80935A0B90935B0BF09ECA
:105D8000B001F19E700D1124665F7F4F072E000C4D
:105D9000880B990B0E94FBDE9B01AC0160935C0BAE
:105DA00070935D0B80935E0B90935F0BE090600BA4
:105DB000F090610B0091620B1091630B8091BD1507
:105DC0008F93812C912C68E4A62E62E4B62E74E6A3
:105DD000C72E7BE0D72EC301B2010E9404A80E9407
:105DE0007A818091010290910202019690930202C1
:105DF000809301020F900C946D3EEAE6F3E08491EB
:105E0000882341F09091C00095FFFCCF8093C6009D
:105E10003196F5CF8091C00085FFFCCF8AE080935A
:105E2000C6008FEF9FEF909302028093010281E002
:105E30008093661286E693E09093A80D8093A70D59
:105E40000E94A5400C946D3E88E50E94453F882342
:105E5000B9F00E94653F8B01015011090330110513
:105E6000F0F0EFE3F3E08491882311F40C946D3E9D
